{
  "_format": "hh-sol-artifact-1",
  "contractName": "Kryptorena",
  "sourceName": "contracts/Kryptorena.sol",
  "abi": [
    {
      "inputs": [
        {
          "internalType": "string",
          "name": "_metadataURI",
          "type": "string"
        }
      ],
      "stateMutability": "nonpayable",
      "type": "constructor"
    },
    {
      "anonymous": false,
      "inputs": [
        {
          "indexed": true,
          "internalType": "address",
          "name": "account",
          "type": "address"
        },
        {
          "indexed": true,
          "internalType": "address",
          "name": "operator",
          "type": "address"
        },
        {
          "indexed": false,
          "internalType": "bool",
          "name": "approved",
          "type": "bool"
        }
      ],
      "name": "ApprovalForAll",
      "type": "event"
    },
    {
      "anonymous": false,
      "inputs": [
        {
          "indexed": false,
          "internalType": "string",
          "name": "battleName",
          "type": "string"
        },
        {
          "indexed": true,
          "internalType": "address",
          "name": "winner",
          "type": "address"
        },
        {
          "indexed": true,
          "internalType": "address",
          "name": "loser",
          "type": "address"
        }
      ],
      "name": "BattleEnded",
      "type": "event"
    },
    {
      "anonymous": false,
      "inputs": [
        {
          "indexed": true,
          "internalType": "string",
          "name": "battleName",
          "type": "string"
        },
        {
          "indexed": true,
          "internalType": "bool",
          "name": "isFirstMove",
          "type": "bool"
        }
      ],
      "name": "BattleMove",
      "type": "event"
    },
    {
      "anonymous": false,
      "inputs": [
        {
          "indexed": false,
          "internalType": "string",
          "name": "battleName",
          "type": "string"
        },
        {
          "indexed": true,
          "internalType": "address",
          "name": "player1",
          "type": "address"
        },
        {
          "indexed": true,
          "internalType": "address",
          "name": "player2",
          "type": "address"
        }
      ],
      "name": "NewBattle",
      "type": "event"
    },
    {
      "anonymous": false,
      "inputs": [
        {
          "indexed": true,
          "internalType": "address",
          "name": "owner",
          "type": "address"
        },
        {
          "indexed": false,
          "internalType": "uint256",
          "name": "id",
          "type": "uint256"
        },
        {
          "indexed": false,
          "internalType": "uint256",
          "name": "attackStrength",
          "type": "uint256"
        },
        {
          "indexed": false,
          "internalType": "uint256",
          "name": "defenseStrength",
          "type": "uint256"
        }
      ],
      "name": "NewGameToken",
      "type": "event"
    },
    {
      "anonymous": false,
      "inputs": [
        {
          "indexed": true,
          "internalType": "address",
          "name": "owner",
          "type": "address"
        },
        {
          "indexed": false,
          "internalType": "string",
          "name": "name",
          "type": "string"
        }
      ],
      "name": "NewPlayer",
      "type": "event"
    },
    {
      "anonymous": false,
      "inputs": [
        {
          "indexed": true,
          "internalType": "address",
          "name": "previousOwner",
          "type": "address"
        },
        {
          "indexed": true,
          "internalType": "address",
          "name": "newOwner",
          "type": "address"
        }
      ],
      "name": "OwnershipTransferred",
      "type": "event"
    },
    {
      "anonymous": false,
      "inputs": [
        {
          "indexed": false,
          "internalType": "address[2]",
          "name": "damagedPlayers",
          "type": "address[2]"
        }
      ],
      "name": "RoundEnded",
      "type": "event"
    },
    {
      "anonymous": false,
      "inputs": [
        {
          "indexed": true,
          "internalType": "address",
          "name": "operator",
          "type": "address"
        },
        {
          "indexed": true,
          "internalType": "address",
          "name": "from",
          "type": "address"
        },
        {
          "indexed": true,
          "internalType": "address",
          "name": "to",
          "type": "address"
        },
        {
          "indexed": false,
          "internalType": "uint256[]",
          "name": "ids",
          "type": "uint256[]"
        },
        {
          "indexed": false,
          "internalType": "uint256[]",
          "name": "values",
          "type": "uint256[]"
        }
      ],
      "name": "TransferBatch",
      "type": "event"
    },
    {
      "anonymous": false,
      "inputs": [
        {
          "indexed": true,
          "internalType": "address",
          "name": "operator",
          "type": "address"
        },
        {
          "indexed": true,
          "internalType": "address",
          "name": "from",
          "type": "address"
        },
        {
          "indexed": true,
          "internalType": "address",
          "name": "to",
          "type": "address"
        },
        {
          "indexed": false,
          "internalType": "uint256",
          "name": "id",
          "type": "uint256"
        },
        {
          "indexed": false,
          "internalType": "uint256",
          "name": "value",
          "type": "uint256"
        }
      ],
      "name": "TransferSingle",
      "type": "event"
    },
    {
      "anonymous": false,
      "inputs": [
        {
          "indexed": false,
          "internalType": "string",
          "name": "value",
          "type": "string"
        },
        {
          "indexed": true,
          "internalType": "uint256",
          "name": "id",
          "type": "uint256"
        }
      ],
      "name": "URI",
      "type": "event"
    },
    {
      "inputs": [],
      "name": "CELESTION",
      "outputs": [
        {
          "internalType": "uint256",
          "name": "",
          "type": "uint256"
        }
      ],
      "stateMutability": "view",
      "type": "function"
    },
    {
      "inputs": [],
      "name": "DEVIL",
      "outputs": [
        {
          "internalType": "uint256",
          "name": "",
          "type": "uint256"
        }
      ],
      "stateMutability": "view",
      "type": "function"
    },
    {
      "inputs": [],
      "name": "FIREBIRD",
      "outputs": [
        {
          "internalType": "uint256",
          "name": "",
          "type": "uint256"
        }
      ],
      "stateMutability": "view",
      "type": "function"
    },
    {
      "inputs": [],
      "name": "GRIFFIN",
      "outputs": [
        {
          "internalType": "uint256",
          "name": "",
          "type": "uint256"
        }
      ],
      "stateMutability": "view",
      "type": "function"
    },
    {
      "inputs": [],
      "name": "KAMO",
      "outputs": [
        {
          "internalType": "uint256",
          "name": "",
          "type": "uint256"
        }
      ],
      "stateMutability": "view",
      "type": "function"
    },
    {
      "inputs": [],
      "name": "KUKULKAN",
      "outputs": [
        {
          "internalType": "uint256",
          "name": "",
          "type": "uint256"
        }
      ],
      "stateMutability": "view",
      "type": "function"
    },
    {
      "inputs": [],
      "name": "MAX_ATTACK_DEFEND_STRENGTH",
      "outputs": [
        {
          "internalType": "uint256",
          "name": "",
          "type": "uint256"
        }
      ],
      "stateMutability": "view",
      "type": "function"
    },
    {
      "inputs": [
        {
          "internalType": "uint8",
          "name": "_choice",
          "type": "uint8"
        },
        {
          "internalType": "string",
          "name": "_battleName",
          "type": "string"
        }
      ],
      "name": "attackOrDefendChoice",
      "outputs": [],
      "stateMutability": "nonpayable",
      "type": "function"
    },
    {
      "inputs": [
        {
          "internalType": "address",
          "name": "account",
          "type": "address"
        },
        {
          "internalType": "uint256",
          "name": "id",
          "type": "uint256"
        }
      ],
      "name": "balanceOf",
      "outputs": [
        {
          "internalType": "uint256",
          "name": "",
          "type": "uint256"
        }
      ],
      "stateMutability": "view",
      "type": "function"
    },
    {
      "inputs": [
        {
          "internalType": "address[]",
          "name": "accounts",
          "type": "address[]"
        },
        {
          "internalType": "uint256[]",
          "name": "ids",
          "type": "uint256[]"
        }
      ],
      "name": "balanceOfBatch",
      "outputs": [
        {
          "internalType": "uint256[]",
          "name": "",
          "type": "uint256[]"
        }
      ],
      "stateMutability": "view",
      "type": "function"
    },
    {
      "inputs": [],
      "name": "baseURI",
      "outputs": [
        {
          "internalType": "string",
          "name": "",
          "type": "string"
        }
      ],
      "stateMutability": "view",
      "type": "function"
    },
    {
      "inputs": [
        {
          "internalType": "string",
          "name": "",
          "type": "string"
        }
      ],
      "name": "battleInfo",
      "outputs": [
        {
          "internalType": "uint256",
          "name": "",
          "type": "uint256"
        }
      ],
      "stateMutability": "view",
      "type": "function"
    },
    {
      "inputs": [
        {
          "internalType": "uint256",
          "name": "",
          "type": "uint256"
        }
      ],
      "name": "battles",
      "outputs": [
        {
          "internalType": "enum Kryptorena.BattleStatus",
          "name": "battleStatus",
          "type": "uint8"
        },
        {
          "internalType": "bytes32",
          "name": "battleHash",
          "type": "bytes32"
        },
        {
          "internalType": "string",
          "name": "name",
          "type": "string"
        },
        {
          "internalType": "address",
          "name": "winner",
          "type": "address"
        }
      ],
      "stateMutability": "view",
      "type": "function"
    },
    {
      "inputs": [
        {
          "internalType": "string",
          "name": "_name",
          "type": "string"
        }
      ],
      "name": "createBattle",
      "outputs": [
        {
          "components": [
            {
              "internalType": "enum Kryptorena.BattleStatus",
              "name": "battleStatus",
              "type": "uint8"
            },
            {
              "internalType": "bytes32",
              "name": "battleHash",
              "type": "bytes32"
            },
            {
              "internalType": "string",
              "name": "name",
              "type": "string"
            },
            {
              "internalType": "address[2]",
              "name": "players",
              "type": "address[2]"
            },
            {
              "internalType": "uint8[2]",
              "name": "moves",
              "type": "uint8[2]"
            },
            {
              "internalType": "address",
              "name": "winner",
              "type": "address"
            }
          ],
          "internalType": "struct Kryptorena.Battle",
          "name": "",
          "type": "tuple"
        }
      ],
      "stateMutability": "nonpayable",
      "type": "function"
    },
    {
      "inputs": [
        {
          "internalType": "string",
          "name": "_name",
          "type": "string"
        }
      ],
      "name": "createRandomGameToken",
      "outputs": [],
      "stateMutability": "nonpayable",
      "type": "function"
    },
    {
      "inputs": [
        {
          "internalType": "uint256",
          "name": "id",
          "type": "uint256"
        }
      ],
      "name": "exists",
      "outputs": [
        {
          "internalType": "bool",
          "name": "",
          "type": "bool"
        }
      ],
      "stateMutability": "view",
      "type": "function"
    },
    {
      "inputs": [
        {
          "internalType": "uint256",
          "name": "",
          "type": "uint256"
        }
      ],
      "name": "gameTokens",
      "outputs": [
        {
          "internalType": "string",
          "name": "name",
          "type": "string"
        },
        {
          "internalType": "uint256",
          "name": "id",
          "type": "uint256"
        },
        {
          "internalType": "uint256",
          "name": "attackStrength",
          "type": "uint256"
        },
        {
          "internalType": "uint256",
          "name": "defenseStrength",
          "type": "uint256"
        }
      ],
      "stateMutability": "view",
      "type": "function"
    },
    {
      "inputs": [],
      "name": "getAllBattles",
      "outputs": [
        {
          "components": [
            {
              "internalType": "enum Kryptorena.BattleStatus",
              "name": "battleStatus",
              "type": "uint8"
            },
            {
              "internalType": "bytes32",
              "name": "battleHash",
              "type": "bytes32"
            },
            {
              "internalType": "string",
              "name": "name",
              "type": "string"
            },
            {
              "internalType": "address[2]",
              "name": "players",
              "type": "address[2]"
            },
            {
              "internalType": "uint8[2]",
              "name": "moves",
              "type": "uint8[2]"
            },
            {
              "internalType": "address",
              "name": "winner",
              "type": "address"
            }
          ],
          "internalType": "struct Kryptorena.Battle[]",
          "name": "",
          "type": "tuple[]"
        }
      ],
      "stateMutability": "view",
      "type": "function"
    },
    {
      "inputs": [],
      "name": "getAllPlayerTokens",
      "outputs": [
        {
          "components": [
            {
              "internalType": "string",
              "name": "name",
              "type": "string"
            },
            {
              "internalType": "uint256",
              "name": "id",
              "type": "uint256"
            },
            {
              "internalType": "uint256",
              "name": "attackStrength",
              "type": "uint256"
            },
            {
              "internalType": "uint256",
              "name": "defenseStrength",
              "type": "uint256"
            }
          ],
          "internalType": "struct Kryptorena.GameToken[]",
          "name": "",
          "type": "tuple[]"
        }
      ],
      "stateMutability": "view",
      "type": "function"
    },
    {
      "inputs": [],
      "name": "getAllPlayers",
      "outputs": [
        {
          "components": [
            {
              "internalType": "address",
              "name": "playerAddress",
              "type": "address"
            },
            {
              "internalType": "string",
              "name": "playerName",
              "type": "string"
            },
            {
              "internalType": "uint256",
              "name": "playerMana",
              "type": "uint256"
            },
            {
              "internalType": "uint256",
              "name": "playerHealth",
              "type": "uint256"
            },
            {
              "internalType": "bool",
              "name": "inBattle",
              "type": "bool"
            }
          ],
          "internalType": "struct Kryptorena.Player[]",
          "name": "",
          "type": "tuple[]"
        }
      ],
      "stateMutability": "view",
      "type": "function"
    },
    {
      "inputs": [
        {
          "internalType": "string",
          "name": "_name",
          "type": "string"
        }
      ],
      "name": "getBattle",
      "outputs": [
        {
          "components": [
            {
              "internalType": "enum Kryptorena.BattleStatus",
              "name": "battleStatus",
              "type": "uint8"
            },
            {
              "internalType": "bytes32",
              "name": "battleHash",
              "type": "bytes32"
            },
            {
              "internalType": "string",
              "name": "name",
              "type": "string"
            },
            {
              "internalType": "address[2]",
              "name": "players",
              "type": "address[2]"
            },
            {
              "internalType": "uint8[2]",
              "name": "moves",
              "type": "uint8[2]"
            },
            {
              "internalType": "address",
              "name": "winner",
              "type": "address"
            }
          ],
          "internalType": "struct Kryptorena.Battle",
          "name": "",
          "type": "tuple"
        }
      ],
      "stateMutability": "view",
      "type": "function"
    },
    {
      "inputs": [
        {
          "internalType": "string",
          "name": "_battleName",
          "type": "string"
        }
      ],
      "name": "getBattleMoves",
      "outputs": [
        {
          "internalType": "uint256",
          "name": "P1Move",
          "type": "uint256"
        },
        {
          "internalType": "uint256",
          "name": "P2Move",
          "type": "uint256"
        }
      ],
      "stateMutability": "view",
      "type": "function"
    },
    {
      "inputs": [
        {
          "internalType": "address",
          "name": "addr",
          "type": "address"
        }
      ],
      "name": "getPlayer",
      "outputs": [
        {
          "components": [
            {
              "internalType": "address",
              "name": "playerAddress",
              "type": "address"
            },
            {
              "internalType": "string",
              "name": "playerName",
              "type": "string"
            },
            {
              "internalType": "uint256",
              "name": "playerMana",
              "type": "uint256"
            },
            {
              "internalType": "uint256",
              "name": "playerHealth",
              "type": "uint256"
            },
            {
              "internalType": "bool",
              "name": "inBattle",
              "type": "bool"
            }
          ],
          "internalType": "struct Kryptorena.Player",
          "name": "",
          "type": "tuple"
        }
      ],
      "stateMutability": "view",
      "type": "function"
    },
    {
      "inputs": [
        {
          "internalType": "address",
          "name": "addr",
          "type": "address"
        }
      ],
      "name": "getPlayerToken",
      "outputs": [
        {
          "components": [
            {
              "internalType": "string",
              "name": "name",
              "type": "string"
            },
            {
              "internalType": "uint256",
              "name": "id",
              "type": "uint256"
            },
            {
              "internalType": "uint256",
              "name": "attackStrength",
              "type": "uint256"
            },
            {
              "internalType": "uint256",
              "name": "defenseStrength",
              "type": "uint256"
            }
          ],
          "internalType": "struct Kryptorena.GameToken",
          "name": "",
          "type": "tuple"
        }
      ],
      "stateMutability": "view",
      "type": "function"
    },
    {
      "inputs": [
        {
          "internalType": "address",
          "name": "_player",
          "type": "address"
        }
      ],
      "name": "getPlayerURI",
      "outputs": [
        {
          "internalType": "string",
          "name": "",
          "type": "string"
        }
      ],
      "stateMutability": "nonpayable",
      "type": "function"
    },
    {
      "inputs": [],
      "name": "getTotalSupply",
      "outputs": [
        {
          "internalType": "uint256",
          "name": "",
          "type": "uint256"
        }
      ],
      "stateMutability": "view",
      "type": "function"
    },
    {
      "inputs": [
        {
          "internalType": "address",
          "name": "account",
          "type": "address"
        },
        {
          "internalType": "address",
          "name": "operator",
          "type": "address"
        }
      ],
      "name": "isApprovedForAll",
      "outputs": [
        {
          "internalType": "bool",
          "name": "",
          "type": "bool"
        }
      ],
      "stateMutability": "view",
      "type": "function"
    },
    {
      "inputs": [
        {
          "internalType": "string",
          "name": "_name",
          "type": "string"
        }
      ],
      "name": "isBattle",
      "outputs": [
        {
          "internalType": "bool",
          "name": "",
          "type": "bool"
        }
      ],
      "stateMutability": "view",
      "type": "function"
    },
    {
      "inputs": [
        {
          "internalType": "address",
          "name": "addr",
          "type": "address"
        }
      ],
      "name": "isPlayer",
      "outputs": [
        {
          "internalType": "bool",
          "name": "",
          "type": "bool"
        }
      ],
      "stateMutability": "view",
      "type": "function"
    },
    {
      "inputs": [
        {
          "internalType": "address",
          "name": "addr",
          "type": "address"
        }
      ],
      "name": "isPlayerToken",
      "outputs": [
        {
          "internalType": "bool",
          "name": "",
          "type": "bool"
        }
      ],
      "stateMutability": "view",
      "type": "function"
    },
    {
      "inputs": [
        {
          "internalType": "string",
          "name": "_name",
          "type": "string"
        }
      ],
      "name": "joinBattle",
      "outputs": [
        {
          "components": [
            {
              "internalType": "enum Kryptorena.BattleStatus",
              "name": "battleStatus",
              "type": "uint8"
            },
            {
              "internalType": "bytes32",
              "name": "battleHash",
              "type": "bytes32"
            },
            {
              "internalType": "string",
              "name": "name",
              "type": "string"
            },
            {
              "internalType": "address[2]",
              "name": "players",
              "type": "address[2]"
            },
            {
              "internalType": "uint8[2]",
              "name": "moves",
              "type": "uint8[2]"
            },
            {
              "internalType": "address",
              "name": "winner",
              "type": "address"
            }
          ],
          "internalType": "struct Kryptorena.Battle",
          "name": "",
          "type": "tuple"
        }
      ],
      "stateMutability": "nonpayable",
      "type": "function"
    },
    {
      "inputs": [],
      "name": "owner",
      "outputs": [
        {
          "internalType": "address",
          "name": "",
          "type": "address"
        }
      ],
      "stateMutability": "view",
      "type": "function"
    },
    {
      "inputs": [
        {
          "internalType": "address",
          "name": "",
          "type": "address"
        }
      ],
      "name": "playerInfo",
      "outputs": [
        {
          "internalType": "uint256",
          "name": "",
          "type": "uint256"
        }
      ],
      "stateMutability": "view",
      "type": "function"
    },
    {
      "inputs": [
        {
          "internalType": "address",
          "name": "",
          "type": "address"
        }
      ],
      "name": "playerTokenInfo",
      "outputs": [
        {
          "internalType": "uint256",
          "name": "",
          "type": "uint256"
        }
      ],
      "stateMutability": "view",
      "type": "function"
    },
    {
      "inputs": [
        {
          "internalType": "uint256",
          "name": "",
          "type": "uint256"
        }
      ],
      "name": "players",
      "outputs": [
        {
          "internalType": "address",
          "name": "playerAddress",
          "type": "address"
        },
        {
          "internalType": "string",
          "name": "playerName",
          "type": "string"
        },
        {
          "internalType": "uint256",
          "name": "playerMana",
          "type": "uint256"
        },
        {
          "internalType": "uint256",
          "name": "playerHealth",
          "type": "uint256"
        },
        {
          "internalType": "bool",
          "name": "inBattle",
          "type": "bool"
        }
      ],
      "stateMutability": "view",
      "type": "function"
    },
    {
      "inputs": [
        {
          "internalType": "string",
          "name": "_battleName",
          "type": "string"
        }
      ],
      "name": "quitBattle",
      "outputs": [],
      "stateMutability": "nonpayable",
      "type": "function"
    },
    {
      "inputs": [
        {
          "internalType": "address",
          "name": "_player",
          "type": "address"
        },
        {
          "internalType": "string",
          "name": "_uri",
          "type": "string"
        }
      ],
      "name": "registerAddressToUri",
      "outputs": [],
      "stateMutability": "nonpayable",
      "type": "function"
    },
    {
      "inputs": [
        {
          "internalType": "string",
          "name": "_name",
          "type": "string"
        },
        {
          "internalType": "string",
          "name": "_gameTokenName",
          "type": "string"
        }
      ],
      "name": "registerPlayer",
      "outputs": [],
      "stateMutability": "payable",
      "type": "function"
    },
    {
      "inputs": [],
      "name": "renounceOwnership",
      "outputs": [],
      "stateMutability": "nonpayable",
      "type": "function"
    },
    {
      "inputs": [
        {
          "internalType": "address",
          "name": "",
          "type": "address"
        }
      ],
      "name": "s_addressToUri",
      "outputs": [
        {
          "internalType": "string",
          "name": "",
          "type": "string"
        }
      ],
      "stateMutability": "view",
      "type": "function"
    },
    {
      "inputs": [
        {
          "internalType": "address",
          "name": "from",
          "type": "address"
        },
        {
          "internalType": "address",
          "name": "to",
          "type": "address"
        },
        {
          "internalType": "uint256[]",
          "name": "ids",
          "type": "uint256[]"
        },
        {
          "internalType": "uint256[]",
          "name": "amounts",
          "type": "uint256[]"
        },
        {
          "internalType": "bytes",
          "name": "data",
          "type": "bytes"
        }
      ],
      "name": "safeBatchTransferFrom",
      "outputs": [],
      "stateMutability": "nonpayable",
      "type": "function"
    },
    {
      "inputs": [
        {
          "internalType": "address",
          "name": "from",
          "type": "address"
        },
        {
          "internalType": "address",
          "name": "to",
          "type": "address"
        },
        {
          "internalType": "uint256",
          "name": "id",
          "type": "uint256"
        },
        {
          "internalType": "uint256",
          "name": "amount",
          "type": "uint256"
        },
        {
          "internalType": "bytes",
          "name": "data",
          "type": "bytes"
        }
      ],
      "name": "safeTransferFrom",
      "outputs": [],
      "stateMutability": "nonpayable",
      "type": "function"
    },
    {
      "inputs": [
        {
          "internalType": "address",
          "name": "operator",
          "type": "address"
        },
        {
          "internalType": "bool",
          "name": "approved",
          "type": "bool"
        }
      ],
      "name": "setApprovalForAll",
      "outputs": [],
      "stateMutability": "nonpayable",
      "type": "function"
    },
    {
      "inputs": [
        {
          "internalType": "string",
          "name": "newuri",
          "type": "string"
        }
      ],
      "name": "setURI",
      "outputs": [],
      "stateMutability": "nonpayable",
      "type": "function"
    },
    {
      "inputs": [
        {
          "internalType": "bytes4",
          "name": "interfaceId",
          "type": "bytes4"
        }
      ],
      "name": "supportsInterface",
      "outputs": [
        {
          "internalType": "bool",
          "name": "",
          "type": "bool"
        }
      ],
      "stateMutability": "view",
      "type": "function"
    },
    {
      "inputs": [
        {
          "internalType": "uint256",
          "name": "tokenId",
          "type": "uint256"
        }
      ],
      "name": "tokenURI",
      "outputs": [
        {
          "internalType": "string",
          "name": "",
          "type": "string"
        }
      ],
      "stateMutability": "view",
      "type": "function"
    },
    {
      "inputs": [],
      "name": "totalSupply",
      "outputs": [
        {
          "internalType": "uint256",
          "name": "",
          "type": "uint256"
        }
      ],
      "stateMutability": "view",
      "type": "function"
    },
    {
      "inputs": [
        {
          "internalType": "uint256",
          "name": "id",
          "type": "uint256"
        }
      ],
      "name": "totalSupply",
      "outputs": [
        {
          "internalType": "uint256",
          "name": "",
          "type": "uint256"
        }
      ],
      "stateMutability": "view",
      "type": "function"
    },
    {
      "inputs": [
        {
          "internalType": "address",
          "name": "newOwner",
          "type": "address"
        }
      ],
      "name": "transferOwnership",
      "outputs": [],
      "stateMutability": "nonpayable",
      "type": "function"
    },
    {
      "inputs": [
        {
          "internalType": "uint256",
          "name": "",
          "type": "uint256"
        }
      ],
      "name": "uri",
      "outputs": [
        {
          "internalType": "string",
          "name": "",
          "type": "string"
        }
      ],
      "stateMutability": "view",
      "type": "function"
    }
  ],
  "bytecode": "0x60806040523462000ab457620052df803803806200001d8162000af9565b92833981019060208183031262000ab4578051906001600160401b03821162000ab4570181601f8201121562000ab4578051906001600160401b0382116200073c5762000074601f8301601f191660200162000af9565b928284526020838301011162000ab45760005b82811062000a9e57600083850160200152835184906001600160401b0381116200073c57600254600181811c9116801562000a93575b60208210146200071b57601f811162000a51575b50806020601f8211600114620009d957600091620009cd575b508160011b916000199060031b1c1916176002555b60038054336001600160a01b0319821681179092556040516001600160a01b03909116907f8be0079c531659141344cd1fd0a4f28419497f9722a3daafe3b4186f6b6457e090600090a380516001600160401b0381116200073c57600554600181811c91168015620009c2575b60208210146200071b57601f81116200098b575b50602091601f8211600114620009215791819260009262000915575b50508160011b916000199060031b1c1916176005555b604051608081016001600160401b038111828210176200073c57604052620001d962000ad9565b6000815281526020810190600082526040810160008152606082019060008252600c54680100000000000000008110156200073c576001810180600c558110156200076857600c600052925180519460029490941b7fdf6966c971051c3d54ec59162606531493a51404a002842f56009d7e5cf4a8c70193906001600160401b0386116200073c578454600181811c911680156200090a575b60208210146200071b57601f8111620008d4575b50602090601f871160011462000865579580916003969760009262000859575b50508160011b9160001990871b1c19161785555b5160018501555160028401555191015560405160a081016001600160401b038111828210176200073c5760405260008152620002f562000ad9565b600081526020820152600060408201526000606082015260006080820152600b5490680100000000000000008210156200073c576001820180600b558210156200076857600b6000528051600583027f0175b7a638427703f0dbe7bb9bbf987a2551717b34e79f33b5b1008d1fa01db990810180546001600160a01b0319166001600160a01b039390931692909217909155602082015180519093906001600160401b0381116200073c5760016005830284010154600181811c911680156200084e575b60208210146200071b57601f811162000810575b506020601f82116001146200078a57918160059260049594608097986000926200077e575b50508160011b916000199060031b1c1916176001838302850101555b60408601516002838302850101556060860151600383830285010155020101910151151560ff801983541691161790556200044862000ab9565b60008152600060208201526200045d62000ab9565b60008082526020820152604051916001600160401b0360c08401908111908411176200073c5760c0830160405260008352600060208401526200049f62000ad9565b60008152604084015260608301526080820152600060a0820152600d5490680100000000000000008210156200073c576001820180600d558210156200076857600d60005280517fd7b6990105719101dabeb77144f2a3385c8033acd3af97e9423a695e81ad1eb59060038110156200075257600784028201805460ff191660ff929092169190911781556020830151600182015560408301518051600290920191906001600160401b0382116200073c57825490600182811c9216801562000731575b60208310146200071b5781601f849311620006d9575b50602090601f83116001146200066e5760009262000662575b50508160011b916000199060031b1c19161790555b606082015160005b600281106200063c575050608082015192600093845b6002811062000614576007830284016005810187905560a086015160069190910180546001600160a01b0319166001600160a01b0392909216919091179055604051614786908162000b398239f35b9094602060019160ff885116908460031b60ff811b9283911b169119161796019101620005c5565b81516001600160a01b0316600360078702850183010155602090910190600101620005af565b01519050868062000592565b6000858152602081209350601f198516905b818110620006c05750908460019594939210620006a6575b505050811b019055620005a7565b015160001960f88460031b161c1916905586808062000698565b9293602060018192878601518155019501930162000680565b6200070990856000526020600020601f850160051c8101916020861062000710575b601f0160051c019062000b1f565b8762000579565b9091508190620006fb565b634e487b7160e01b600052602260045260246000fd5b91607f169162000563565b634e487b7160e01b600052604160045260246000fd5b634e487b7160e01b600052602160045260246000fd5b634e487b7160e01b600052603260045260246000fd5b015190508880620003f2565b60016005840285010160005260206000209560005b601f1984168110620007f7575082608096976004969593600193600596601f19811610620007dd575b505050811b016001838302850101556200040e565b015160001960f88460031b161c19169055888080620007c8565b828201518855600190970196602092830192016200079f565b62000847906001600585028601016000526020600020601f840160051c810191602085106200071057601f0160051c019062000b1f565b85620003cd565b90607f1690620003b9565b015190508780620002a6565b90601f198716918660005260206000209260005b818110620008bb57509160019391896003999a9410620008a2575b505050811b018555620002ba565b015160001983891b60f8161c1916905587808062000894565b9293602060018192878601518155019501930162000879565b6200090390866000526020600020601f890160051c81019160208a106200071057601f0160051c019062000b1f565b8662000286565b90607f169062000272565b0151905082806200019c565b601f19821692600560005260206000209160005b858110620009725750836001951062000958575b505050811b01600555620001b2565b015160001960f88460031b161c1916905582808062000949565b9192602060018192868501518155019401920162000935565b620009bb9060056000526020600020601f840160051c810191602085106200071057601f0160051c019062000b1f565b8262000180565b90607f16906200016c565b905082015183620000ea565b60026000908152600080516020620052bf8339815191529250601f198416905b81811062000a385750908360019493921062000a1e575b5050811b01600255620000ff565b84015160001960f88460031b161c19169055838062000a10565b91926020600181928689015181550194019201620009f9565b600260005262000a8c90600080516020620052bf833981519152601f840160051c810191602085106200071057601f0160051c019062000b1f565b82620000d1565b90607f1690620000bd565b8060208092840101518282870101520162000087565b600080fd5b60408051919082016001600160401b038111838210176200073c57604052565b60405190602082016001600160401b038111838210176200073c57604052565b6040519190601f01601f191682016001600160401b038111838210176200073c57604052565b81811062000b2b575050565b6000815560010162000b1f56fe6080604052600436101561001257600080fd5b60003560e01c8062fdd58e14612f28578063015a379214612e3f57806301ffc9a714612dd157806302fe530514612caa5780630677aa4e14612c8e57806309c95e1014612c6b5780630daea2cd14612c4f5780630e89341c14612b9e57806310898e4c14612b665780631107ae3d14612b2c57806316801d1714612ae257806318160ddd14610a525780631b8b2eeb146108dc5780632711162e14612aa85780632ca045221461292b5780632eb2c2d6146124ea5780633835e2b51461248e5780633d129e7a146123535780634b114691146123195780634e1273f41461217b5780634f558e791461214d5780635c12cd4b146121155780635c93fc3d1461202c578063606d2e9614611fa55780636c0360eb14611ed7578063703730a514611ebb578063715018a614611e59578063845f433b14611b6d5780638da5cb5b14611b44578063996d7bea14611a715780639b09cc8714611a1b5780639e4ecd11146119ff5780639ec40aa3146119c7578063a1b4f57c14611813578063a22cb46514611726578063ba27495614610b58578063bd85b03914610b2c578063bf034b6914610a9d578063bf103a4d14610a70578063c4e41b2214610a52578063c87b56dd1461094a578063d2198cc51461092e578063dd726a22146108dc578063de96cefc146108c0578063e985e9c51461086a578063efa1c48214610781578063f1da733914610765578063f242432a1461039c578063f2fde38b146102d05763f71d96cb1461024157600080fd5b346102cb5760203660031901126102cb57600435600b548110156102cb57600b6000526005602060002091020160018060a01b0381541661028460018301613320565b9160028101549060ff6004600383015492015416906102b5604051958695865260a0602087015260a0860190612fa6565b9260408501526060840152151560808301520390f35b600080fd5b346102cb5760203660031901126102cb576102e9612f57565b6102f1613404565b6001600160a01b0390811690811561034857600380546001600160a01b03198116841790915560405160009390929091167f8be0079c531659141344cd1fd0a4f28419497f9722a3daafe3b4186f6b6457e08484a3f35b60405162461bcd60e51b815260206004820152602660248201527f4f776e61626c653a206e6577206f776e657220697320746865207a65726f206160448201526564647265737360d01b6064820152608490fd5b346102cb5760a03660031901126102cb576103b5612f57565b6103bd612f6d565b90608480356001600160401b0381116102cb576103de9036906004016130a7565b6001600160a01b0391908383163314801561073a575b6103fd90613527565b8285161561040b811561358a565b61041660443561379d565b61042160643561379d565b91858716156106da575b61061a575b505060443560005260209460008652604060002084861660005286526040600020546104606064358210156135e4565b60443560005260008752604060002085871660005287526064359003604060002055604435600052600086526040600020848216600052865260406000206104ab6064358254613643565b905560405160443581526064358782015284821690858716907fc3d58168c5ae7397731d063d5bbf3d657854427343f4c083240f7aacaa2d0f6260403392a4803b6104f3575b005b60a0600061053d958895604051978896879586938563f23a6e6160e01b9d8e87523360048801521660248601526044356044860152606435606486015284015260a4830190612fa6565b0393165af1600091816105eb575b506105c157505060019061055d6136b9565b6308c379a01461058c575b5061056f57005b60405162461bcd60e51b81528061058860048201613748565b0390fd5b6105946136d7565b90816105a05750610568565b61058860405192839262461bcd60e51b845260048401526024830190612fa6565b6001600160e01b0319161490506104f15760405162461bcd60e51b81528061058860048201613670565b61060c919250843d8611610613575b610604818361306b565b810190613650565b908461054b565b503d6105fa565b92959194909360005b84518110156106cb576106368186613513565b51906106428188613513565b5182600052600460205260406000205481811061067657610671936000526004602052036040600020556134e1565b610623565b60405162461bcd60e51b815260206004820152602860248201527f455243313135353a206275726e20616d6f756e74206578636565647320746f74604482015267616c537570706c7960c01b60648201528b90fd5b50935093909491508580610430565b959260009794919592975b865181101561072c57806106fc610727928b613513565b51610707828a613513565b5160005260046020526107206040600020918254613643565b90556134e1565b6106e5565b50929596919490939661042b565b5082841660005260016020526040600020336000526020526103fd60ff6040600020541690506103f4565b346102cb5760003660031901126102cb57602060405160048152f35b346102cb5760003660031901126102cb57600b5461079e816131c0565b906107ac604051928361306b565b808252600b6000908152602091828401917f0175b7a638427703f0dbe7bb9bbf987a2551717b34e79f33b5b1008d1fa01db9835b8383106108475750505050604051918083019381845251809452604083019360408160051b85010192916000955b82871061081b5785850386f35b909192938280610837600193603f198a82030186528851613269565b960192019601959291909261080e565b600586600192610859859a999a6137e8565b8152019201920191909594956107e0565b346102cb5760403660031901126102cb57610883612f57565b61088b612f6d565b9060018060a01b03809116600052600160205260406000209116600052602052602060ff604060002054166040519015158152f35b346102cb5760003660031901126102cb57602060405160018152f35b346102cb5760203660031901126102cb576001600160a01b036108fd612f57565b16600052600a60205261092a6109166040600020613320565b604051918291602083526020830190612fa6565b0390f35b346102cb5760003660031901126102cb57602060405160008152f35b346102cb576020806003193601126102cb57610967600435614672565b9060405191826000916005549261097d846132e6565b600194868682169182600014610a2d5750506001146109eb575b509264173539b7b760d91b6006939285602f60f81b6109d797526109c3825180938a8785019101612f83565b01918201520360191981018552018361306b565b61092a604051928284938452830190612fa6565b8591506005600052816000206000905b828210610a1557505083010164173539b7b760d91b610997565b805489830185015288955087939091019086016109fb565b60ff1916818701528215159092028501909101915064173539b7b760d91b9050610997565b346102cb5760003660031901126102cb576020600654604051908152f35b346102cb5760203660031901126102cb576020610a93610a8e612f57565b6138d8565b6040519015158152f35b346102cb5760203660031901126102cb57600435600c548110156102cb57600c600052610b189060021b7fdf6966c971051c3d54ec59162606531493a51404a002842f56009d7e5cf4a8c701610af281613320565b906001810154906003600282015491015490604051948594608086526080860190612fa6565b926020850152604084015260608301520390f35b346102cb5760203660031901126102cb5760043560005260046020526020604060002054604051908152f35b346102cb5760403660031901126102cb5760043560ff81168091036102cb5760249081356001600160401b0381116102cb57610b989036906004016130a7565b90610ba282613b16565b8051600381101561169d576001036116b2578051600381101561169d5760021461165e576060810190815160018060a01b038151163314908115611647575b5015611603576080015181515160ff91610c0f916001600160a01b031633036115fb578260005b16906142e5565b51166115b75751516001600160a01b031633036115b05760005b600182148080156115a6575b15611562571561155b5760036040610c4c33613838565b015110155b1561150c5760405191610c8284519360208181880196610c7281838a612f83565b81016009815203019020546132b1565b5090600260ff841610156114f757601f6005610cb893600786831c160101931683549060031b60ff811b9283911b169119161790565b90556080610cc583613b16565b0180515160ff166114ee5760ff60005b166002039060ff821161127157516020015160ff166114e45760ff8060005b1691160360ff81116111915760ff1690600182036114d957610d246001915b604051809281928751928391612f83565b8101039020901515907f54b82b77e7ae55a8e6c9e89deba70c7191dea2a3b08ae647b380e9f981d6a0f86000604051a315610d5b57005b610d6490613b16565b606081015180516001600160a01b031633149081156114c2575b501561146a57608081015160ff81511615159081611459575b501561140b5760018060a01b0360608201515116600052600760205260406000205460ff608083015151166060610dd960018060a01b03828601515116613838565b0151606084015151604090610df6906001600160a01b0316613957565b015160608581015151919291610e14906001600160a01b0316613957565b01519260405194610e2486613035565b8552602085015260408401526060830152608082015260018060a01b0360206060840151015116600052600760205260406000205460ff602060808501510151166060610e7f60018060a01b03602083880151015116613838565b0151606085015160200151604090610e9f906001600160a01b0316613957565b015160608681015160200151919291610ec0906001600160a01b0316613957565b01519260405194610ed086613035565b8552602085015260408401526060830152608082015260405191610ef383612fff565b6000835260006020840152826020820151600181148080916113fd575b156111bb5750505060608101516040830151116110e0575050606082015151610f439083906001600160a01b0316614360565b505b604051906000825b600282106110c05750505060407fc6bf860cbc15f7020f73993a671f01bbb1831a8a7a12c126ca735eb632e7577591a160006080820151526000602060808301510152610f9e8160408101516142f6565b606081015151610fb6906001600160a01b03166140ce565b60018060a01b03606083015151166000526008602052806002610fdd6040600020546133c6565b500155600a03600a81116110ab5760018060a01b0360608301515116600052600860205260036110116040600020546133c6565b50015560608101516020015161102f906001600160a01b03166140ce565b60018060a01b036020606084015101511660005260086020528060026110596040600020546133c6565b500155600a0391600a831161109757506020606060018060a01b03920151015116600052600860205260036110926040600020546133c6565b500155005b634e487b7160e01b60009081526011600452fd5b82634e487b7160e01b60005260116004526000fd5b82516001600160a01b031681526020928301926001929092019101610f4d565b606082015160408201518110611116575050506060820151602001516111109083906001600160a01b0316614360565b50610f45565b60029293509061115791611139600361112f84516133e5565b50019182546140c1565b9055606081015161114f600361112f87516133e5565b9055516133e5565b5001805460021992838201929183116111a6576002926111789255516133e5565b5001805491820191821161119157556060810151610f45565b83634e487b7160e01b60005260116004526000fd5b85634e487b7160e01b60005260116004526000fd5b806113ef575b156112a957506111da6040840151608085015190613643565b6060830151909290918383106112095750505060608401515161111092508491506001600160a01b0316614360565b60029361123c93806080880151116000146112865750505060408401515b600361123386516133e5565b500155516133e5565b500180546002198101929083116111a65760029261125b9255516133e5565b5001805490600382018092116112715755610f45565b84634e487b7160e01b60005260116004526000fd5b61128f916140c1565b6060880151602001516001600160a01b0316909152611227565b60021480806113e1575b1561137d57506112cc6040830151608084015190613643565b6060840151909290918383106112fe5750505060608401516020015161111092508491506001600160a01b0316614360565b600293611328938060808501511160001461135d5750505060408101515b600361123383516133e5565b5001805491600383018093116111a6576002926113469255516133e5565b500180546002198101919082116112715755610f45565b611366916140c1565b6060880151516001600160a01b031690915261131c565b9050806113d3575b611391575b5050610f45565b61139d600291516133e5565b5001805491600383018093116111a6576002926113bb9255516133e5565b5001805490600382018092116112715755838061138a565b506002602083015114611385565b5060016020850151146112b3565b5060026020850151146111c1565b506001602086015114610f10565b60405162461bcd60e51b8152602060048201526021818401527f506c6179657273207374696c6c206e65656420746f206d616b652061206d6f766044820152606560f81b6064820152608490fd5b60ff91506020015116151583610d97565b60405162461bcd60e51b815260206004820152602b818401527f4f6e6c7920706c617965727320696e207468697320626174746c652063616e2060448201526a6d616b652061206d6f766560a81b6064820152608490fd5b602001516001600160a01b03163314905083610d7e565b610d24600091610d13565b60ff806001610cf4565b60ff6001610cd5565b85634e487b7160e01b60005260326004526000fd5b60405162461bcd60e51b8152602060048201526022818601527f4d616e61206e6f742073756666696369656e7420666f722061747461636b696e604482015261672160f01b6064820152608490fd5b6001610c51565b60405162461bcd60e51b815260206004820152601f818701527f43686f6963652073686f756c64206265206569746865722031206f72203221006044820152606490fd5b5060028314610c35565b6001610c29565b60405162461bcd60e51b815260206004820152601d818601527f596f75206861766520616c7265616479206d6164652061206d6f7665210000006044820152606490fd5b826001610c08565b60405162461bcd60e51b815260206004820152601a818701527f596f7520617265206e6f7420696e207468697320626174746c650000000000006044820152606490fd5b602001516001600160a01b03163314905086610be1565b60405162461bcd60e51b8152602060048201526018818601527710985d1d1b19481a185cc8185b1c9958591e48195b99195960421b6044820152606490fd5b84634e487b7160e01b60005260216004526000fd5b60405162461bcd60e51b8152602060048201526041818601527f426174746c65206e6f7420737461727465642e20506c656173652074656c6c2060448201527f616e6f7468657220706c6179657220746f206a6f696e2074686520626174746c6064820152606560f81b608482015260a490fd5b346102cb5760403660031901126102cb5761173f612f57565b60243590811515908183036102cb576001600160a01b0316913383146117bc5761178e9033600052600160205260406000208460005260205260406000209060ff801983541691151516179055565b6040519081527f17307eab39ab6107e8899845ad3d59bd9653f200f220920489ca2b5937696c3160203392a3005b60405162461bcd60e51b815260206004820152602960248201527f455243313135353a2073657474696e6720617070726f76616c20737461747573604482015268103337b91039b2b63360b91b6064820152608490fd5b346102cb576020806003193601126102cb576004356001600160401b0381116102cb576118449036906004016130a7565b9061184d613a07565b5061185782613b16565b91606083019060018060a01b03908183515116331461197857608061187b33613838565b015161193f578461189591600182523386865101526142f6565b80825151166000526007835260046118b16040600020546133e5565b500160ff19906001828254161790558184845101511660005260078452600160046118e06040600020546133e5565b5001918254161790556040840151915151167f024187b16c217a79f8d8e6252b542ec6e278fa91304acd9cfd866f2bbf00bd0860405184815280611928339587830190612fa6565b0390a361092a604051928284938452830190613111565b60405162461bcd60e51b8152600481018590526011602482015270416c726561647920696e20626174746c6560781b6044820152606490fd5b60405162461bcd60e51b815260048101859052602160248201527f4f6e6c7920706c617965722074776f2063616e206a6f696e206120626174746c6044820152606560f81b6064820152608490fd5b346102cb5760203660031901126102cb576004356001600160401b0381116102cb576119fa6104f19136906004016130a7565b613bf2565b346102cb5760003660031901126102cb57602060405160058152f35b346102cb5760203660031901126102cb576004356001600160401b0381116102cb576080611a57611a5260409336906004016130a7565b613b16565b015160ff6020818351169201511682519182526020820152f35b346102cb5760203660031901126102cb576004356001600160401b0381116102cb57611a52611aa49136906004016130a7565b6060810190815160018060a01b0390818151163314908115611b34575b5015611aef578251518116338103611ae3575060206104f19351015116614360565b90506104f19250614360565b60405162461bcd60e51b815260206004820152601b60248201527f596f7520617265206e6f7420696e207468697320626174746c652100000000006044820152606490fd5b6020015182163314905084611ac1565b346102cb5760003660031901126102cb576003546040516001600160a01b039091168152602090f35b60403660031901126102cb576001600160401b036004358181116102cb57611b999036906004016130a7565b6024358281116102cb57611bb19036906004016130a7565b611bba336137c2565b611e1857600b54604051611bcd81613035565b33815260209485820185815260408301600a8152606084019160198352608085019360008552600160401b871015611dec5760018701600b55611c0f876133e5565b969096611e02575186546001600160a01b0319166001600160a01b03919091161786559051805160018701929091908211611dec57611c4e83546132e6565b8b601f8211611db0575b50508a90601f8311600114611d145794611cde94611cf1989484600495611d049d9a957f81ef79d1cda814a60c0fc60792e648a06d9c6bae67176346d1cc8b63030bfccd9f9d9a600092611d09575b50508160011b916000199060031b1c19161790555b51600285015551600384015551151591019060ff801983541691151516179055565b3360005260078752604060002055613bf2565b6040519182918583523395830190612fa6565b0390a2005b015190503880611ca7565b60008481528c8120929190601f198516908e5b828210611d9857505094600185611d049d9a957f81ef79d1cda814a60c0fc60792e648a06d9c6bae67176346d1cc8b63030bfccd9f9d9a95611cde9a95600499611cf19f9b10611d7f575b505050811b019055611cbc565b015160001960f88460031b161c19169055388080611d72565b80600186978294978701518155019601940190611d27565b611ddb91856000528160002090601f860160051c8201928610611de2575b601f0160051c0190613b8f565b8b8b611c58565b9091508190611dce565b634e487b7160e01b600052604160045260246000fd5b634e487b7160e01b600052600060045260246000fd5b60405162461bcd60e51b8152602060048201526019602482015278141b185e595c88185b1c9958591e481c9959da5cdd195c9959603a1b6044820152606490fd5b346102cb5760003660031901126102cb57611e72613404565b600380546001600160a01b0319811690915560405160009182906001600160a01b03167f8be0079c531659141344cd1fd0a4f28419497f9722a3daafe3b4186f6b6457e08284a3f35b346102cb5760003660031901126102cb57602060405160028152f35b346102cb5760003660031901126102cb57604051600090600554611efa816132e6565b808352600191808316908115611f7d5750600114611f23575b61092a836109168187038261306b565b6005600090815260209450917f036b6384b5eca791c62761152d0c79bb0604c104a5fb6f4eb0703f3154bb3db05b828410611f6a5750505081019091019061091681611f13565b8054858501870152928501928101611f51565b61092a955061091693506020915091849260ff191682840152151560051b8201019350611f13565b346102cb5760203660031901126102cb57600435600d548110156102cb5761200c90600d6000526007602060002091020160ff81541690612022600182015491611ff160028201613320565b90600660018060a01b039101541692604051958680966130ee565b6020850152608060408501526080840190612fa6565b9060608301520390f35b346102cb5760003660031901126102cb57600d54612049816131c0565b90612057604051928361306b565b808252600d6000908152602091828401917fd7b6990105719101dabeb77144f2a3385c8033acd3af97e9423a695e81ad1eb5835b8383106120f25750505050604051918083019381845251809452604083019360408160051b85010192916000955b8287106120c65785850386f35b9091929382806120e2600193603f198a82030186528851613111565b96019201960195929190926120b9565b600786600192612104859a999a613a56565b81520192019201919095949561208b565b346102cb5760203660031901126102cb5761092a612139612134612f57565b613838565b604051918291602083526020830190613269565b346102cb5760203660031901126102cb57600435600052600460205260206040600020541515604051908152f35b346102cb5760403660031901126102cb576004356001600160401b038082116102cb57366023830112156102cb578160040135906121b8826131c0565b926121c6604051948561306b565b82845260209260248486019160051b830101913683116102cb57602401905b8282106122fa575050506024359081116102cb576122079036906004016131d7565b82518151036122a35782519261221c846131c0565b9361222a604051958661306b565b808552612239601f19916131c0565b01368486013760005b815181101561228c57612287906122776001600160a01b036122648386613513565b51166122708387613513565b519061345c565b6122818288613513565b526134e1565b612242565b50505061092a604051928284938452830190613235565b60405162461bcd60e51b815260048101839052602960248201527f455243313135353a206163636f756e747320616e6420696473206c656e677468604482015268040dad2e6dac2e8c6d60bb1b6064820152608490fd5b81356001600160a01b03811681036102cb5781529084019084016121e5565b346102cb5760203660031901126102cb576001600160a01b0361233a612f57565b1660005260076020526020604060002054604051908152f35b346102cb5760403660031901126102cb5761236c612f57565b6001600160401b036024358181116102cb5761238c9036906004016130a7565b9160018060a01b0316600052602090600a82526040600020918351918211611dec576123b883546132e6565b601f811161245e575b5080601f83116001146123fb57508192936000926123f0575b50508160011b916000199060031b1c1916179055005b0151905083806123da565b90601f198316948460005282600020926000905b87821061244657505083600195961061242d575b505050811b019055005b015160001960f88460031b161c19169055838080612423565b8060018596829496860151815501950193019061240f565b612488908460005282600020601f850160051c810191848610611de257601f0160051c0190613b8f565b846123c1565b346102cb5760203660031901126102cb576004356001600160401b0381116102cb576124d760206124c4819336906004016130a7565b8160405193828580945193849201612f83565b8101600981520301902054604051908152f35b346102cb5760031960a0368201126102cb57612504612f57565b9061250d612f6d565b906001600160401b03604480358281116102cb5761252f9036906004016131d7565b9060649081358481116102cb5761254a9036906004016131d7565b9460849485359081116102cb576125659036906004016130a7565b6001600160a01b0398891698909190338a148015612902575b61258790613527565b85518851036128af57881695861561259f811561358a565b8a1561286c575b6127a7575b60005b865181101561263e57806125c56126399289613513565b518c6125d1838d613513565b51918060005282602092600084526040600020816000528452604060002054906125fd838310156135e4565b8360005260008552604060002090600052845203604060002055600052600081526040600020908b600052526107206040600020918254613643565b6125ae565b5090919293968998878a604051604081527f4a39dc06d4c0dbc64b70af90fd698a233a518aa5d07e595d983b8c0526c8f7fb61267d604083018c613235565b91808303602082015280612692339489613235565b0390a43b61269c57005b604051978896879663bc197c8160e01b9b8c89523360048a01526024890152870160a0905260a487016126ce91613235565b908487830301908701526126e191613235565b9184830301908401526126f391612fa6565b03815a602094600091f160009181612787575b5061275f57505060016127176136b9565b6308c379a014612728575b61056f57005b6127306136d7565b8061273b5750612722565b60405162461bcd60e51b815260206004820152908190610588906024830190612fa6565b6001600160e01b031916146104f15760405162461bcd60e51b81528061058860048201613670565b6127a091925060203d811161061357610604818361306b565b9083612706565b96949398929590979160005b855181101561285d576127c68187613513565b516127d18289613513565b5190806000526020600481526040600020549183831061280a576128059493929160049160005252036040600020556134e1565b6127b3565b508b9067616c537570706c7960c01b8f7f455243313135353a206275726e20616d6f756e74206578636565647320746f748e6040519462461bcd60e51b8652600486015260286024860152840152820152fd5b509197909592989394966125ab565b98959996949392919060005b8b518110156128a057808c6107078261289461289b958f613513565b5192613513565b612878565b509091929394969995986125a6565b60405162461bcd60e51b815260206004820152602860248201527f455243313135353a2069647320616e6420616d6f756e7473206c656e6774682081860152670dad2e6dac2e8c6d60c31b818701528790fd5b5089600052600160205260406000203360005260205261258760ff60406000205416905061257e565b346102cb576020806003193601126102cb576004356001600160401b0381116102cb5761295c9036906004016130a7565b90612965613a07565b50612977612972336137c2565b613ba6565b612980826139d6565b612a6b5780604051818101908282526129ae816129a06040820188612fa6565b03601f19810183528261306b565b519020926040516129be81612fff565b338152600083820152604051906129d482612fff565b60008252600084830152604051956129eb8761301a565b600087528487015282604087015260608601526080850152600060a0850152612a26600d549283928160405193828580945193849201612f83565b8101600981520301902055600160401b811015611dec5782612a51826001612a579401600d556132b1565b90614115565b61092a604051928284938452830190613111565b6064906040519062461bcd60e51b825260048201526016602482015275426174746c6520616c7265616479206578697374732160501b6044820152fd5b346102cb5760203660031901126102cb576001600160a01b03612ac9612f57565b1660005260086020526020604060002054604051908152f35b346102cb5760203660031901126102cb576004356001600160401b0381116102cb57612b18611a5261092a9236906004016130a7565b604051918291602083526020830190613111565b346102cb5760203660031901126102cb576004356001600160401b0381116102cb57610a93612b6160209236906004016130a7565b6139d6565b346102cb5760203660031901126102cb5761092a612b8a612b85612f57565b613957565b604051918291602083526020830190612fcb565b346102cb576020806003193601126102cb576040519060008260025491612bc4836132e6565b92838352600190858282169182600014612c2f575050600114612bef575b506109d79250038361306b565b849150600260005281600020906000915b858310612c175750506109d7935082010185612be2565b80548389018501528794508693909201918101612c00565b60ff1916858201526109d795151560051b8501019250879150612be29050565b346102cb5760003660031901126102cb576020604051600a8152f35b346102cb5760203660031901126102cb576020610a93612c89612f57565b6137c2565b346102cb5760003660031901126102cb57602060405160038152f35b346102cb576020806003193601126102cb576001600160401b036004358181116102cb57612cdc9036906004016130a7565b91612ce5613404565b8251918211611dec57612cf96002546132e6565b601f8111612da0575b5080601f8311600114612d3c57508192600092612d31575b50508160011b916000199060031b1c191617600255005b015190508280612d1a565b90601f19831693600260005282600020926000905b868210612d885750508360019510612d6f575b505050811b01600255005b015160001960f88460031b161c19169055828080612d64565b80600185968294968601518155019501930190612d51565b612dcb90600260005282600020601f850160051c810191848610611de257601f0160051c0190613b8f565b83612d02565b346102cb5760203660031901126102cb5760043563ffffffff60e01b81168091036102cb57602090636cdb3d1360e11b8114908115612e2e575b8115612e1d575b506040519015158152f35b6301ffc9a760e01b14905082612e12565b6303a24d0760e21b81149150612e0b565b346102cb5760003660031901126102cb57600c54612e5c816131c0565b90612e6a604051928361306b565b808252600c6000908152602091828401917fdf6966c971051c3d54ec59162606531493a51404a002842f56009d7e5cf4a8c7835b838310612f055750505050604051918083019381845251809452604083019360408160051b85010192916000955b828710612ed95785850386f35b909192938280612ef5600193603f198a82030186528851612fcb565b9601920196019592919092612ecc565b600486600192612f17859a999a61391e565b815201920192019190959495612e9e565b346102cb5760403660031901126102cb576020612f4f612f46612f57565b6024359061345c565b604051908152f35b600435906001600160a01b03821682036102cb57565b602435906001600160a01b03821682036102cb57565b60005b838110612f965750506000910152565b8181015183820152602001612f86565b90602091612fbf81518092818552858086019101612f83565b601f01601f1916010190565b90606080612fe28451608085526080850190612fa6565b936020810151602085015260408101516040850152015191015290565b604081019081106001600160401b03821117611dec57604052565b60c081019081106001600160401b03821117611dec57604052565b60a081019081106001600160401b03821117611dec57604052565b608081019081106001600160401b03821117611dec57604052565b90601f801991011681019081106001600160401b03821117611dec57604052565b6001600160401b038111611dec57601f01601f191660200190565b81601f820112156102cb578035906130be8261308c565b926130cc604051948561306b565b828452602083830101116102cb57816000926020809301838601378301015290565b9060038210156130fb5752565b634e487b7160e01b600052602160045260246000fd5b9061311d8183516130ee565b60209182810151838301526131416040820151610100806040860152840190612fa6565b926060820151606084016000905b83600283106131a25750505050608082015190600060a085015b6002821061318a575050505060e09060a0600180821b039101511691015290565b828060019260ff875116815201940191019092613169565b83516001600160a01b0316825292830192600192909201910161314f565b6001600160401b038111611dec5760051b60200190565b81601f820112156102cb578035916131ee836131c0565b926131fc604051948561306b565b808452602092838086019260051b8201019283116102cb578301905b828210613226575050505090565b81358152908301908301613218565b90815180825260208080930193019160005b828110613255575050505090565b835185529381019392810192600101613247565b9060018060a01b038251168152608080613292602085015160a0602086015260a0850190612fa6565b9360408101516040850152606081015160608501520151151591015290565b600d548110156132d057600d6000526007602060002091020190600090565b634e487b7160e01b600052603260045260246000fd5b90600182811c92168015613316575b602083101461330057565b634e487b7160e01b600052602260045260246000fd5b91607f16916132f5565b9060405191826000825492613334846132e6565b9081845260019485811690816000146133a35750600114613360575b505061335e9250038361306b565b565b9093915060005260209081600020936000915b81831061338b57505061335e93508201013880613350565b85548884018501529485019487945091830191613373565b91505061335e94506020925060ff191682840152151560051b8201013880613350565b600c548110156132d057600c60005260206000209060021b0190600090565b600b548110156132d057600b6000526005602060002091020190600090565b6003546001600160a01b0316330361341857565b606460405162461bcd60e51b815260206004820152602060248201527f4f776e61626c653a2063616c6c6572206973206e6f7420746865206f776e65726044820152fd5b6001600160a01b031690811561348957600052600060205260406000209060005260205260406000205490565b60405162461bcd60e51b815260206004820152602a60248201527f455243313135353a2061646472657373207a65726f206973206e6f742061207660448201526930b634b21037bbb732b960b11b6064820152608490fd5b60001981146134f05760010190565b634e487b7160e01b600052601160045260246000fd5b8051156132d05760200190565b80518210156132d05760209160051b010190565b1561352e57565b60405162461bcd60e51b815260206004820152602e60248201527f455243313135353a2063616c6c6572206973206e6f7420746f6b656e206f776e60448201526d195c881bdc88185c1c1c9bdd995960921b6064820152608490fd5b1561359157565b60405162461bcd60e51b815260206004820152602560248201527f455243313135353a207472616e7366657220746f20746865207a65726f206164604482015264647265737360d81b6064820152608490fd5b156135eb57565b60405162461bcd60e51b815260206004820152602a60248201527f455243313135353a20696e73756666696369656e742062616c616e636520666f60448201526939103a3930b739b332b960b11b6064820152608490fd5b919082018092116134f057565b908160209103126102cb57516001600160e01b0319811681036102cb5790565b60809060208152602860208201527f455243313135353a204552433131353552656365697665722072656a656374656040820152676420746f6b656e7360c01b60608201520190565b60009060033d116136c657565b905060046000803e60005160e01c90565b600060443d1061373457604051600319913d83016004833e81516001600160401b03918282113d6024840111176137375781840194855193841161373f573d8501016020848701011161373757506137349291016020019061306b565b90565b949350505050565b50949350505050565b60809060208152603460208201527f455243313135353a207472616e7366657220746f206e6f6e2d455243313135356040820152732932b1b2b4bb32b91034b6b83632b6b2b73a32b960611b60608201520190565b604051906137aa82612fff565b60018252602036818401376137be82613506565b5290565b6001600160a01b03166000908152600760205260409020546137e357600090565b600190565b906040516137f581613035565b608060ff6004839560018060a01b03815416855261381560018201613320565b602086015260028101546040860152600381015460608601520154161515910152565b608060405161384681613035565b600091818380935260606020820152826040820152826060820152015261386c826137c2565b1561389b576001600160a01b0390911681526007602052604090205461373490613895906133e5565b506137e8565b60405162461bcd60e51b8152602060048201526015602482015274506c6179657220646f65736e27742065786973742160581b6044820152606490fd5b6001600160a01b03166000908152600860205260409020546137e357600090565b6040519061390682613050565b60006060838181528260208201528260408201520152565b9060405161392b81613050565b60606003829461393a81613320565b845260018101546020850152600281015460408501520154910152565b61395f6138f9565b50613969816138d8565b156139955760018060a01b0316600052600860205261373461398f6040600020546133c6565b5061391e565b60405162461bcd60e51b815260206004820152601960248201527847616d6520746f6b656e20646f65736e27742065786973742160381b6044820152606490fd5b60206139ef918160405193828580945193849201612f83565b8101600981520301902054156000146137e357600090565b604090600060a08351613a198161301a565b80948382528360208301526060818301528051613a3581612fff565b813682376060830152805190613a4a82612fff565b36823760808201520152565b90604051613a638161301a565b809260ff81541660038110156130fb5782526001808201549060209182850152600290613a91828501613320565b60408601526040519182600386016000915b838310613afa5750505050509081613abd60a09493612fff565b60608501526040519060ff6005840154818116845260081c1690820152613ae381612fff565b6080840152600601546000196001831b0116910152565b81546001600160a01b0316815291840191908401908601613aa3565b613b1e613a07565b50613b28816139d6565b15613b5257613b4c610c726020613734938160405193828580945193849201612f83565b50613a56565b60405162461bcd60e51b8152602060048201526015602482015274426174746c6520646f65736e27742065786973742160581b6044820152606490fd5b818110613b9a575050565b60008155600101613b8f565b15613bad57565b60405162461bcd60e51b815260206004820152601c60248201527f506c6561736520526567697374657220506c61796572204669727374000000006044820152606490fd5b6080613bfd33613838565b015161408457613c0f612972336137c2565b613c176138f9565b50613c21336140ce565b80600a0390600a82116134f0576040908151602090818101904282523360601b858201526034815260608101966001600160401b0392828910848a1117611dec5760ff60646006928b8a528551902006160660ff811691821561406e575b60ff9250613c8c8a613050565b89521696608082019188835260c060a08201918783520190888252600c5493600160401b851015611dec57600195868601600c55613cc9866133c6565b959095611e0257518051918211611dec57613ce486546132e6565b601f811161403e575b508890601f8311600114613fd6576003959493929160009183613fcb575b505060001982871b1c191690881b1785555b518685015551600284015551910155336000526008835284600020558351613d4481612fff565b600381526203078360ec1b838201523315613f7d57613d628761379d565b82865191613d6f83612fff565b81835285368185013781613d8284613506565b526000825b613f39575b50505050866000526000835284600020336000528352846000208054908382018092116134f0575584518781528284820152600033917fc3d58168c5ae7397731d063d5bbf3d657854427343f4c083240f7aacaa2d0f62883392a4333b613e31575b5050613dfb6006546134e1565b60065582519485528401528201527fca8ab07e9ed17d119729fc652dd24df9d8430ca862dda4631925b5b4b99da36260603392a2565b8451838180613e6f63f23a6e6160e01b95868352336004840152600060248401528c604484015287606484015260a0608484015260a4830190612fa6565b03816000335af160009181613f1a575b50613ef1575050613e8e6136b9565b6308c379a014613ebd575b613ea5575b3880613dee565b825162461bcd60e51b81528061058860048201613748565b613ec56136d7565b80613ed05750613e99565b82610588865192839262461bcd60e51b845260048401526024830190612fa6565b6001600160e01b031916149050613e9e57825162461bcd60e51b81528061058860048201613670565b613f32919250853d871161061357610604818361306b565b9038613e7f565b8151811015613f785780613f50613f729286613513565b51613f5b8285613513565b51600052600489526107208b600020918254613643565b82613d87565b613d8c565b845162461bcd60e51b815260048101849052602160248201527f455243313135353a206d696e7420746f20746865207a65726f206164647265736044820152607360f81b6064820152608490fd5b015190503880613d0b565b949392918891601f19821690886000528b6000209160005b8d828210614028575050978360039910614010575b505050811b018555613d1d565b015160001983891b60f8161c19169055388080614003565b838b015185558d96909401939283019201613fee565b61406890876000528a600020601f850160051c8101918c8610611de257601f0160051c0190613b8f565b38613ced565b905060ff82146134f057600160ff920190613c7f565b60405162461bcd60e51b8152602060048201526015602482015274506c6179657220697320696e206120626174746c6560581b6044820152606490fd5b919082039182116134f057565b600a9060405160208101914483524260408301526001600160601b03199060601b1660608201526054815261410281613050565b51902006801561410f5790565b50600590565b929190611e02578051926003808510156130fb5760ff1982541660ff80961617825560209081840151906001918285015560029081850160408701518051906001600160401b038211611dec57819061416e84546132e6565b601f81116142b5575b508790601f831160011461425357600092614248575b505060001982851b1c191690851b1790555b606086015160005b83811061422c5750505090608085015191600093845b8281106141fc575050505050600582015560a09091015160069190910180546001600160a01b0319166001600160a01b03929092169190911790559050565b909192826142208697848d85995116919060031b60ff811b9283911b169119161790565b960194939291016141bd565b81516001600160a01b03168782018401559085019084016141a7565b01519050388061418d565b90879350601f1983169185600052896000209260005b8b82821061429f5750508411614287575b505050811b01905561419f565b015160001983871b60f8161c1916905538808061427a565b8385015186558b97909501949384019301614269565b6142df908560005289600020601f850160051c8101918b8610611de257601f0160051c0190613b8f565b38614177565b9060028110156132d05760051b0190565b90614300826139d6565b1561432457612a51610c72602061335e948160405193828580945193849201612f83565b60405162461bcd60e51b815260206004820152601460248201527310985d1d1b1948191bd95cdb89dd08195e1a5cdd60621b6044820152606490fd5b614368613a07565b50815190600390818310156130fb5760028093146146365782845260018060a01b0390818116928360a087015260409060806143ac838901946121348a87516142f6565b0151156145f6576000908582526020966007885283832054600181146000146145e457826143ea60ff826143e086956133e5565b50015493166133e5565b50015490818111156145d55790614400916140c1565b915b60608a019261441d845133875260078c5287872054906142e5565b5186518b81019144835242898301526001600160601b03199060601b1660608201526054815261444c81613050565b51902081156145c15793600a899897959461457a8d95856145a59a967fae6e5eafb6cd1cb4b139e7a0b9140aa182ee7d50e99f50d660156f79212acbc09e99069081156145b5575b8161449e916140c1565b90896144b68851338b5260078c528d8b2054906142e5565b51168852600889526144d8856144ce8d8b20546133c6565b5001918254613643565b9055886144f18751338a5260078b528c8a2054906142e5565b5116875260088852614509826144ce8c8a20546133c6565b90558785515116865260078752601989872054918989885101511688528a88205492868661455b600461453b856133e5565b50019360ff19948581541690558686614553836133e5565b5001556133e5565b5001556004614569856133e5565b5001908154169055614553836133e5565b50015551805190915083168981036145ab5750015116925b5190519384938885521696830190612fa6565b0390a390565b9250505092614592565b600181901c9150614494565b634e487b7160e01b86526012600452602486fd5b6145de916140c1565b91614402565b826143ea60ff826143e06001956133e5565b815162461bcd60e51b8152602060048201526019602482015278506c61796572206973206e6f7420696e206120626174746c6560381b6044820152606490fd5b60405162461bcd60e51b815260206004820152601460248201527310985d1d1b1948185b1c9958591e48195b99195960621b6044820152606490fd5b80156147325780816000925b61471e57508061468d8361308c565b9261469b604051948561306b565b808452601f196146aa8261308c565b01366020860137915b6146bc57505090565b81600019918284019384116134f05783600a8083048095048111851515166134f0576146ee60ff9384928702906140c1565b166030019182116134f057855111156132d05760f81b6001600160f81b03191660001a908401601f0153806146b3565b9161472a600a916134e1565b92048061467e565b5060405161473f81612fff565b60018152600360fc1b60208201529056fea264697066735822122004225cc80ff59d9360301f33492492b15c0d33ffdca454c689f678611386e4c964736f6c63430008100033405787fa12a823e0f2b7631cc41b3ba8828b3321ca811111fa75cd3aa3bb5ace",
  "linkReferences": {},
  "deployedLinkReferences": {}
}